{
  "contractName": "staking_dapp",
  "abi": [
    {
      "inputs": [
        {
          "internalType": "contract Dummy",
          "name": "_dummyToken",
          "type": "address"
        },
        {
          "internalType": "contract Tether",
          "name": "_tetherToken",
          "type": "address"
        }
      ],
      "stateMutability": "nonpayable",
      "type": "constructor"
    },
    {
      "inputs": [],
      "name": "dummy_token",
      "outputs": [
        {
          "internalType": "contract Dummy",
          "name": "",
          "type": "address"
        }
      ],
      "stateMutability": "view",
      "type": "function",
      "constant": true
    },
    {
      "inputs": [
        {
          "internalType": "address",
          "name": "",
          "type": "address"
        }
      ],
      "name": "hasStaked",
      "outputs": [
        {
          "internalType": "bool",
          "name": "",
          "type": "bool"
        }
      ],
      "stateMutability": "view",
      "type": "function",
      "constant": true
    },
    {
      "inputs": [
        {
          "internalType": "address",
          "name": "",
          "type": "address"
        }
      ],
      "name": "isStaked",
      "outputs": [
        {
          "internalType": "bool",
          "name": "",
          "type": "bool"
        }
      ],
      "stateMutability": "view",
      "type": "function",
      "constant": true
    },
    {
      "inputs": [
        {
          "internalType": "address",
          "name": "",
          "type": "address"
        }
      ],
      "name": "isStaking",
      "outputs": [
        {
          "internalType": "bool",
          "name": "",
          "type": "bool"
        }
      ],
      "stateMutability": "view",
      "type": "function",
      "constant": true
    },
    {
      "inputs": [],
      "name": "name",
      "outputs": [
        {
          "internalType": "string",
          "name": "",
          "type": "string"
        }
      ],
      "stateMutability": "view",
      "type": "function",
      "constant": true
    },
    {
      "inputs": [],
      "name": "owner",
      "outputs": [
        {
          "internalType": "address",
          "name": "",
          "type": "address"
        }
      ],
      "stateMutability": "view",
      "type": "function",
      "constant": true
    },
    {
      "inputs": [
        {
          "internalType": "uint256",
          "name": "",
          "type": "uint256"
        }
      ],
      "name": "stakers",
      "outputs": [
        {
          "internalType": "address",
          "name": "",
          "type": "address"
        }
      ],
      "stateMutability": "view",
      "type": "function",
      "constant": true
    },
    {
      "inputs": [
        {
          "internalType": "address",
          "name": "",
          "type": "address"
        }
      ],
      "name": "stakingBalance",
      "outputs": [
        {
          "internalType": "uint256",
          "name": "",
          "type": "uint256"
        }
      ],
      "stateMutability": "view",
      "type": "function",
      "constant": true
    },
    {
      "inputs": [],
      "name": "tether_token",
      "outputs": [
        {
          "internalType": "contract Tether",
          "name": "",
          "type": "address"
        }
      ],
      "stateMutability": "view",
      "type": "function",
      "constant": true
    },
    {
      "inputs": [
        {
          "internalType": "uint256",
          "name": "_amount",
          "type": "uint256"
        }
      ],
      "name": "stakeToken",
      "outputs": [],
      "stateMutability": "nonpayable",
      "type": "function"
    },
    {
      "inputs": [],
      "name": "unstakeToken",
      "outputs": [],
      "stateMutability": "nonpayable",
      "type": "function"
    },
    {
      "inputs": [],
      "name": "issueDummy",
      "outputs": [],
      "stateMutability": "nonpayable",
      "type": "function"
    }
  ],
  "bytecode": "0x60806040526040518060400160405280600c81526020017f7374616b696e675f646170700000000000000000000000000000000000000000815250600090816200004a9190620003c3565b503480156200005857600080fd5b50604051620016d2380380620016d283398181016040528101906200007e91906200056d565b81600260006101000a81548173ffffffffffffffffffffffffffffffffffffffff021916908373ffffffffffffffffffffffffffffffffffffffff16021790555080600360006101000a81548173ffffffffffffffffffffffffffffffffffffffff021916908373ffffffffffffffffffffffffffffffffffffffff16021790555033600160006101000a81548173ffffffffffffffffffffffffffffffffffffffff021916908373ffffffffffffffffffffffffffffffffffffffff1602179055505050620005b4565b600081519050919050565b7f4e487b7100000000000000000000000000000000000000000000000000000000600052604160045260246000fd5b7f4e487b7100000000000000000000000000000000000000000000000000000000600052602260045260246000fd5b60006002820490506001821680620001cb57607f821691505b602082108103620001e157620001e062000183565b5b50919050565b60008190508160005260206000209050919050565b60006020601f8301049050919050565b600082821b905092915050565b6000600883026200024b7fffffffffffffffffffffffffffffffffffffffffffffffffffffffffffffffff826200020c565b6200025786836200020c565b95508019841693508086168417925050509392505050565b6000819050919050565b6000819050919050565b6000620002a46200029e62000298846200026f565b62000279565b6200026f565b9050919050565b6000819050919050565b620002c08362000283565b620002d8620002cf82620002ab565b84845462000219565b825550505050565b600090565b620002ef620002e0565b620002fc818484620002b5565b505050565b5b81811015620003245762000318600082620002e5565b60018101905062000302565b5050565b601f82111562000373576200033d81620001e7565b6200034884620001fc565b8101602085101562000358578190505b620003706200036785620001fc565b83018262000301565b50505b505050565b600082821c905092915050565b6000620003986000198460080262000378565b1980831691505092915050565b6000620003b3838362000385565b9150826002028217905092915050565b620003ce8262000149565b67ffffffffffffffff811115620003ea57620003e962000154565b5b620003f68254620001b2565b6200040382828562000328565b600060209050601f8311600181146200043b576000841562000426578287015190505b620004328582620003a5565b865550620004a2565b601f1984166200044b86620001e7565b60005b8281101562000475578489015182556001820191506020850194506020810190506200044e565b8683101562000495578489015162000491601f89168262000385565b8355505b6001600288020188555050505b505050505050565b600080fd5b600073ffffffffffffffffffffffffffffffffffffffff82169050919050565b6000620004dc82620004af565b9050919050565b6000620004f082620004cf565b9050919050565b6200050281620004e3565b81146200050e57600080fd5b50565b6000815190506200052281620004f7565b92915050565b60006200053582620004cf565b9050919050565b620005478162000528565b81146200055357600080fd5b50565b60008151905062000567816200053c565b92915050565b60008060408385031215620005875762000586620004aa565b5b6000620005978582860162000511565b9250506020620005aa8582860162000556565b9150509250929050565b61110e80620005c46000396000f3fe608060405234801561001057600080fd5b50600436106100b45760003560e01c806389c95e981161007157806389c95e981461017b5780638da5cb5b14610199578063c93c8f34146101b7578063cda6b847146101e7578063f9075fc614610203578063fd5e6dd114610221576100b4565b806306fdde03146100b957806320eb640c146100d757806330685185146100e157806345bc78ab146100eb5780636177fd181461011b5780636f49712b1461014b575b600080fd5b6100c1610251565b6040516100ce9190610b26565b60405180910390f35b6100df6102df565b005b6100e96104a7565b005b61010560048036038101906101009190610bab565b610691565b6040516101129190610bf1565b60405180910390f35b61013560048036038101906101309190610bab565b6106a9565b6040516101429190610c27565b60405180910390f35b61016560048036038101906101609190610bab565b6106c9565b6040516101729190610c27565b60405180910390f35b6101836106e9565b6040516101909190610ca1565b60405180910390f35b6101a161070f565b6040516101ae9190610ccb565b60405180910390f35b6101d160048036038101906101cc9190610bab565b610735565b6040516101de9190610c27565b60405180910390f35b61020160048036038101906101fc9190610d12565b610755565b005b61020b610a31565b6040516102189190610d60565b60405180910390f35b61023b60048036038101906102369190610d12565b610a57565b6040516102489190610ccb565b60405180910390f35b6000805461025e90610daa565b80601f016020809104026020016040519081016040528092919081815260200182805461028a90610daa565b80156102d75780601f106102ac576101008083540402835291602001916102d7565b820191906000526020600020905b8154815290600101906020018083116102ba57829003601f168201915b505050505081565b6000600560003373ffffffffffffffffffffffffffffffffffffffff1673ffffffffffffffffffffffffffffffffffffffff16815260200190815260200160002054905060008111610366576040517f08c379a000000000000000000000000000000000000000000000000000000000815260040161035d90610e27565b60405180910390fd5b600360009054906101000a900473ffffffffffffffffffffffffffffffffffffffff1673ffffffffffffffffffffffffffffffffffffffff1663a9059cbb33836040518363ffffffff1660e01b81526004016103c3929190610e47565b6020604051808303816000875af11580156103e2573d6000803e3d6000fd5b505050506040513d601f19601f820116820180604052508101906104069190610e9c565b506000600560003373ffffffffffffffffffffffffffffffffffffffff1673ffffffffffffffffffffffffffffffffffffffff168152602001908152602001600020819055506000600860003373ffffffffffffffffffffffffffffffffffffffff1673ffffffffffffffffffffffffffffffffffffffff16815260200190815260200160002060006101000a81548160ff02191690831515021790555050565b600160009054906101000a900473ffffffffffffffffffffffffffffffffffffffff1673ffffffffffffffffffffffffffffffffffffffff163373ffffffffffffffffffffffffffffffffffffffff1614610537576040517f08c379a000000000000000000000000000000000000000000000000000000000815260040161052e90610f3b565b60405180910390fd5b60005b60048054905081101561068e5760006004828154811061055d5761055c610f5b565b5b9060005260206000200160009054906101000a900473ffffffffffffffffffffffffffffffffffffffff1690506000600560008373ffffffffffffffffffffffffffffffffffffffff1673ffffffffffffffffffffffffffffffffffffffff168152602001908152602001600020549050600081111561067957600260009054906101000a900473ffffffffffffffffffffffffffffffffffffffff1673ffffffffffffffffffffffffffffffffffffffff1663a9059cbb83836040518363ffffffff1660e01b8152600401610634929190610e47565b6020604051808303816000875af1158015610653573d6000803e3d6000fd5b505050506040513d601f19601f820116820180604052508101906106779190610e9c565b505b5050808061068690610fb9565b91505061053a565b50565b60056020528060005260406000206000915090505481565b60076020528060005260406000206000915054906101000a900460ff1681565b60086020528060005260406000206000915054906101000a900460ff1681565b600360009054906101000a900473ffffffffffffffffffffffffffffffffffffffff1681565b600160009054906101000a900473ffffffffffffffffffffffffffffffffffffffff1681565b60066020528060005260406000206000915054906101000a900460ff1681565b60008111610798576040517f08c379a000000000000000000000000000000000000000000000000000000000815260040161078f9061104d565b60405180910390fd5b600360009054906101000a900473ffffffffffffffffffffffffffffffffffffffff1673ffffffffffffffffffffffffffffffffffffffff166323b872dd3330846040518463ffffffff1660e01b81526004016107f79392919061106d565b6020604051808303816000875af1158015610816573d6000803e3d6000fd5b505050506040513d601f19601f8201168201806040525081019061083a9190610e9c565b5080600560003373ffffffffffffffffffffffffffffffffffffffff1673ffffffffffffffffffffffffffffffffffffffff1681526020019081526020016000205461088691906110a4565b600560003373ffffffffffffffffffffffffffffffffffffffff1673ffffffffffffffffffffffffffffffffffffffff16815260200190815260200160002081905550600660003373ffffffffffffffffffffffffffffffffffffffff1673ffffffffffffffffffffffffffffffffffffffff16815260200190815260200160002060009054906101000a900460ff1661097e576004339080600181540180825580915050600190039060005260206000200160009091909190916101000a81548173ffffffffffffffffffffffffffffffffffffffff021916908373ffffffffffffffffffffffffffffffffffffffff1602179055505b6001600860003373ffffffffffffffffffffffffffffffffffffffff1673ffffffffffffffffffffffffffffffffffffffff16815260200190815260200160002060006101000a81548160ff0219169083151502179055506001600660003373ffffffffffffffffffffffffffffffffffffffff1673ffffffffffffffffffffffffffffffffffffffff16815260200190815260200160002060006101000a81548160ff02191690831515021790555050565b600260009054906101000a900473ffffffffffffffffffffffffffffffffffffffff1681565b60048181548110610a6757600080fd5b906000526020600020016000915054906101000a900473ffffffffffffffffffffffffffffffffffffffff1681565b600081519050919050565b600082825260208201905092915050565b60005b83811015610ad0578082015181840152602081019050610ab5565b60008484015250505050565b6000601f19601f8301169050919050565b6000610af882610a96565b610b028185610aa1565b9350610b12818560208601610ab2565b610b1b81610adc565b840191505092915050565b60006020820190508181036000830152610b408184610aed565b905092915050565b600080fd5b600073ffffffffffffffffffffffffffffffffffffffff82169050919050565b6000610b7882610b4d565b9050919050565b610b8881610b6d565b8114610b9357600080fd5b50565b600081359050610ba581610b7f565b92915050565b600060208284031215610bc157610bc0610b48565b5b6000610bcf84828501610b96565b91505092915050565b6000819050919050565b610beb81610bd8565b82525050565b6000602082019050610c066000830184610be2565b92915050565b60008115159050919050565b610c2181610c0c565b82525050565b6000602082019050610c3c6000830184610c18565b92915050565b6000819050919050565b6000610c67610c62610c5d84610b4d565b610c42565b610b4d565b9050919050565b6000610c7982610c4c565b9050919050565b6000610c8b82610c6e565b9050919050565b610c9b81610c80565b82525050565b6000602082019050610cb66000830184610c92565b92915050565b610cc581610b6d565b82525050565b6000602082019050610ce06000830184610cbc565b92915050565b610cef81610bd8565b8114610cfa57600080fd5b50565b600081359050610d0c81610ce6565b92915050565b600060208284031215610d2857610d27610b48565b5b6000610d3684828501610cfd565b91505092915050565b6000610d4a82610c6e565b9050919050565b610d5a81610d3f565b82525050565b6000602082019050610d756000830184610d51565b92915050565b7f4e487b7100000000000000000000000000000000000000000000000000000000600052602260045260246000fd5b60006002820490506001821680610dc257607f821691505b602082108103610dd557610dd4610d7b565b5b50919050565b7f7374616b696e672062616c616e6365206973207a65726f000000000000000000600082015250565b6000610e11601783610aa1565b9150610e1c82610ddb565b602082019050919050565b60006020820190508181036000830152610e4081610e04565b9050919050565b6000604082019050610e5c6000830185610cbc565b610e696020830184610be2565b9392505050565b610e7981610c0c565b8114610e8457600080fd5b50565b600081519050610e9681610e70565b92915050565b600060208284031215610eb257610eb1610b48565b5b6000610ec084828501610e87565b91505092915050565b7f63616c6c6572206d75737420626520746865206f776e657220666f722074686960008201527f732066756e6374696f6e00000000000000000000000000000000000000000000602082015250565b6000610f25602a83610aa1565b9150610f3082610ec9565b604082019050919050565b60006020820190508181036000830152610f5481610f18565b9050919050565b7f4e487b7100000000000000000000000000000000000000000000000000000000600052603260045260246000fd5b7f4e487b7100000000000000000000000000000000000000000000000000000000600052601160045260246000fd5b6000610fc482610bd8565b91507fffffffffffffffffffffffffffffffffffffffffffffffffffffffffffffffff8203610ff657610ff5610f8a565b5b600182019050919050565b7f616d6f756e742063616e6e6f74206265207a65726f0000000000000000000000600082015250565b6000611037601583610aa1565b915061104282611001565b602082019050919050565b600060208201905081810360008301526110668161102a565b9050919050565b60006060820190506110826000830186610cbc565b61108f6020830185610cbc565b61109c6040830184610be2565b949350505050565b60006110af82610bd8565b91506110ba83610bd8565b92508282019050808211156110d2576110d1610f8a565b5b9291505056fea2646970667358221220c163b2eda436114f5244b41f65affb76eb78a53857a0d4ea5f52a2e9309a281364736f6c63430008130033",
  "immutableReferences": {},
  "source": "//SPDX-License-Identifier: GPL-3.0\npragma solidity >= 0.4.22 < 0.9.0;\nimport \"./Dummy_token.sol\";\nimport \"./Tether_token.sol\";\n\ncontract staking_dapp{\n    string public name = \"staking_dapp\";\n    address public owner;\n    Dummy public dummy_token;\n    Tether public tether_token;\n\n    address[] public stakers;\n    mapping(address => uint) public stakingBalance;\n    mapping(address => bool) public hasStaked;\n    mapping(address => bool) public isStaked;\n    mapping(address => bool) public isStaking;\n\n    constructor (Dummy _dummyToken, Tether _tetherToken) {\n        dummy_token = _dummyToken;\n        tether_token = _tetherToken;\n        owner = msg.sender;\n\n    }\n\n    function stakeToken(uint _amount) public{\n        require(_amount > 0, \"amount cannot be zero\");\n        tether_token.transferFrom(msg.sender, address(this), _amount);\n        stakingBalance[msg.sender] = stakingBalance[msg.sender] + _amount;\n\n        if(!hasStaked[msg.sender]){\n            stakers.push(msg.sender);\n        }\n\n        isStaking[msg.sender] = true;\n        hasStaked[msg.sender] = true;\n    }\n\n    function unstakeToken() public {\n        uint balance = stakingBalance[msg.sender];\n        require (balance > 0, \"staking balance is zero\");\n        tether_token.transfer(msg.sender, balance);\n        stakingBalance[msg.sender] = 0;\n        isStaking[msg.sender] = false;\n    }\n\n    function issueDummy() public {\n        require(msg.sender == owner, \"caller must be the owner for this function\");\n        for (uint i = 0; i < stakers.length; i++) {\n            address recipient = stakers[i];\n            uint balance = stakingBalance[recipient];\n            if (balance > 0){\n                dummy_token.transfer (recipient, balance);\n            }\n        }\n    }\n}\n\n\n\n",
  "sourcePath": "/Users/peter/Desktop/ethereum/staking_dapp/staking_dapp/src/contracts/staking_dapp.sol",
  "compiler": {
    "name": "solc",
    "version": "0.8.19+commit.7dd6d404.Emscripten.clang"
  },
  "schemaVersion": "3.4.13",
  "updatedAt": "2023-05-19T08:30:22.422Z",
  "networkType": "ethereum",
  "devdoc": {
    "kind": "dev",
    "methods": {},
    "version": 1
  },
  "userdoc": {
    "kind": "user",
    "methods": {},
    "version": 1
  }
}